{
  "transactions": [
    {
      "hash": null,
      "transactionType": "CALL",
      "contractName": "LinkToken",
      "contractAddress": "0x779877a7b0d9e8603169ddbd7836e478b4624789",
      "function": "transferAndCall(address,uint256,bytes)",
      "arguments": [
        "0x9DdfaCa8183c41ad55329BdeeD9F6A8d53168B1B",
        "3000000000000000000",
        "0xe5c9f3df860ef5fc2dd79a2dfe77ba989316f7dc33d83f24d7acc457ef6b6412"
      ],
      "transaction": {
        "from": "0xa33d15455419d510512e4e470ad70f32f707bd44",
        "to": "0x779877a7b0d9e8603169ddbd7836e478b4624789",
        "gas": "0x1c1ff",
        "value": "0x0",
        "input": "0x4000aea00000000000000000000000009ddfaca8183c41ad55329bdeed9f6a8d53168b1b00000000000000000000000000000000000000000000000029a2241af62c000000000000000000000000000000000000000000000000000000000000000000600000000000000000000000000000000000000000000000000000000000000020e5c9f3df860ef5fc2dd79a2dfe77ba989316f7dc33d83f24d7acc457ef6b6412",
        "nonce": "0x28",
        "chainId": "0xaa36a7"
      },
      "additionalContracts": [],
      "isFixedGasLimit": false
    }
  ],
  "receipts": [],
  "libraries": [],
  "pending": [],
  "returns": {},
  "timestamp": 1733647346,
  "chain": 11155111,
  "commit": "b1a999a"
}