{
  "transactions": [
    {
      "hash": "0x4e3eab59391e176610188071f034c61bc8222f918aae07192f873f5a87a9b4e2",
      "transactionType": "CALL",
      "contractName": "LinkToken",
      "contractAddress": "0x779877a7b0d9e8603169ddbd7836e478b4624789",
      "function": "transferAndCall(address,uint256,bytes)",
      "arguments": [
        "0x9DdfaCa8183c41ad55329BdeeD9F6A8d53168B1B",
        "3000000000000000000",
        "0xe5c9f3df860ef5fc2dd79a2dfe77ba989316f7dc33d83f24d7acc457ef6b6412"
      ],
      "transaction": {
        "from": "0xa33d15455419d510512e4e470ad70f32f707bd44",
        "to": "0x779877a7b0d9e8603169ddbd7836e478b4624789",
        "gas": "0x1c1ff",
        "value": "0x0",
        "input": "0x4000aea00000000000000000000000009ddfaca8183c41ad55329bdeed9f6a8d53168b1b00000000000000000000000000000000000000000000000029a2241af62c000000000000000000000000000000000000000000000000000000000000000000600000000000000000000000000000000000000000000000000000000000000020e5c9f3df860ef5fc2dd79a2dfe77ba989316f7dc33d83f24d7acc457ef6b6412",
        "nonce": "0x28",
        "chainId": "0xaa36a7"
      },
      "additionalContracts": [],
      "isFixedGasLimit": false
    }
  ],
  "receipts": [
    {
      "status": "0x1",
      "cumulativeGasUsed": "0x1120835",
      "logs": [
        {
          "address": "0x779877a7b0d9e8603169ddbd7836e478b4624789",
          "topics": [
            "0xddf252ad1be2c89b69c2b068fc378daa952ba7f163c4a11628f55a4df523b3ef",
            "0x000000000000000000000000a33d15455419d510512e4e470ad70f32f707bd44",
            "0x0000000000000000000000009ddfaca8183c41ad55329bdeed9f6a8d53168b1b"
          ],
          "data": "0x00000000000000000000000000000000000000000000000029a2241af62c0000",
          "blockHash": "0xf45f2a4698f4eb3c3eea71fceba4ffc1fe8e2e4ef80e3815bcf039e56c39b41d",
          "blockNumber": "0x6e6853",
          "transactionHash": "0x4e3eab59391e176610188071f034c61bc8222f918aae07192f873f5a87a9b4e2",
          "transactionIndex": "0x4a",
          "logIndex": "0xf1",
          "removed": false
        },
        {
          "address": "0x779877a7b0d9e8603169ddbd7836e478b4624789",
          "topics": [
            "0xe19260aff97b920c7df27010903aeb9c8d2be5d310a2c67824cf3f15396e4c16",
            "0x000000000000000000000000a33d15455419d510512e4e470ad70f32f707bd44",
            "0x0000000000000000000000009ddfaca8183c41ad55329bdeed9f6a8d53168b1b"
          ],
          "data": "0x00000000000000000000000000000000000000000000000029a2241af62c000000000000000000000000000000000000000000000000000000000000000000400000000000000000000000000000000000000000000000000000000000000020e5c9f3df860ef5fc2dd79a2dfe77ba989316f7dc33d83f24d7acc457ef6b6412",
          "blockHash": "0xf45f2a4698f4eb3c3eea71fceba4ffc1fe8e2e4ef80e3815bcf039e56c39b41d",
          "blockNumber": "0x6e6853",
          "transactionHash": "0x4e3eab59391e176610188071f034c61bc8222f918aae07192f873f5a87a9b4e2",
          "transactionIndex": "0x4a",
          "logIndex": "0xf2",
          "removed": false
        },
        {
          "address": "0x9ddfaca8183c41ad55329bdeed9f6a8d53168b1b",
          "topics": [
            "0x1ced9348ff549fceab2ac57cd3a9de38edaaab274b725ee82c23e8fc8c4eec7a",
            "0xe5c9f3df860ef5fc2dd79a2dfe77ba989316f7dc33d83f24d7acc457ef6b6412"
          ],
          "data": "0x000000000000000000000000000000000000000000000000000000000000000000000000000000000000000000000000000000000000000029a2241af62c0000",
          "blockHash": "0xf45f2a4698f4eb3c3eea71fceba4ffc1fe8e2e4ef80e3815bcf039e56c39b41d",
          "blockNumber": "0x6e6853",
          "transactionHash": "0x4e3eab59391e176610188071f034c61bc8222f918aae07192f873f5a87a9b4e2",
          "transactionIndex": "0x4a",
          "logIndex": "0xf3",
          "removed": false
        }
      ],
      "logsBloom": "0x00000004000000000000000000000000000000000020000000000000020000000000000000000000000000000000000000000000000000000000000000000000000000000000000000000008000000000000000000000000000020200020000008000000000000000000000000000000000000000000000000000010000040000000000000000000000000010000800000008020400040000080000000000000000000000000000000000000010000000000000000000000000004000000000000000002000000000000000000000000000000000000000100000000000000010010000000000000800000000000000000000000000000000000000000000000",
      "type": "0x2",
      "transactionHash": "0x4e3eab59391e176610188071f034c61bc8222f918aae07192f873f5a87a9b4e2",
      "transactionIndex": "0x4a",
      "blockHash": "0xf45f2a4698f4eb3c3eea71fceba4ffc1fe8e2e4ef80e3815bcf039e56c39b41d",
      "blockNumber": "0x6e6853",
      "gasUsed": "0x133b1",
      "effectiveGasPrice": "0xf07bb96",
      "from": "0xa33d15455419d510512e4e470ad70f32f707bd44",
      "to": "0x779877a7b0d9e8603169ddbd7836e478b4624789",
      "contractAddress": null
    }
  ],
  "libraries": [],
  "pending": [],
  "returns": {},
  "timestamp": 1733647369,
  "chain": 11155111,
  "commit": "b1a999a"
}